:04000000A7EF03F073
:03050000000000F8
:100504002BEC04F0879C000E436E600E266E080EE2
:10051400276E000E286E000E296E24EC04F000F005
:1005240000F0440E266E000E276E060E286EC4ECF4
:1005340003F000F000F0DEEC03F0828C150E426E46
:100544004B0E416EBE0EE82EFED7412EFCD7422E36
:10055400FAD700D0010E3D6E050E3E6EF7EC03F0A7
:10056400829C150E426E4B0E416EBE0EE82EFED7D7
:10057400412EFCD7422EFAD700D0432A030E43184B
:10058400D8A4C7EF02F0C9EF02F09FEF02F000EF2A
:1005940008F0000E436E9FEF02F000EF00F02850C9
:1005A4002910D8B4D8EF02F0DAEF02F0E3EF02F04A
:1005B40028502910D8A4E1EF02F0E3EF02F0E8EFAD
:1005C40002F0265035EC04F01BEF03F020EE09F0A6
:1005D4002850D9262950DA22DE50DE10D8B4F5EF9F
:1005E40002F0F7EF02F012EF03F020EE09F02850CA
:1005F400D9262950DA2210EE03F02850E12629509A
:10060400E222DE50E65CE650800A2E6EDE50800A5E
:100614002E58D8B010EF03F012EF03F01BEF03F0E5
:1006240020EE03F02850D9262950DA22DE2A000EC3
:10063400DD22120031C0D9FF32C0DAFFDECFF6FF6F
:10064400DDCFF7FF0800F550250AD8A42CEF03F0FE
:100654002EEF03F046EF03F031C0D9FF32C0DAFFCA
:10066400DE2A000EDD22000E226E000E216E21C055
:1006740025F02368246831C0D9FF32C0DAFFDE2AAE
:10068400000EDD225AEF03F031C0D9FF32C0DAFF89
:10069400DECFF6FFDDCFF7FF0800F550266E276AA0
:1006A4002FC028F030C029F0D1EC02F03DEF03F068
:1006B400120037C03BF038C03CF06FEF03F035C098
:1006C4002FF036C030F03B0E316E000E326E39C062
:1006D40033F03AC034F01CEC03F03BC0F6FF3CC0EE
:1006E400F7FF0800F5500009D8A47BEF03F07DEF75
:1006F40003F061EF03F0000E366E000E356E12004B
:10070400000E826E000E836E000E846EBF0E876E26
:10071400886889680F011C6914690C69000E286FC8
:10072400000E136F000E0B6F000E1B6F000E0A6F8E
:10073400000E126F000E1A6F0969116919690869B0
:1007440010691869080E256F1200640EF66E080E03
:10075400F76E000EF86E00EE44F010EE06F009009D
:10076400F5CFEEFFE550E150FAE100EE01F0250E81
:10077400EE6AE806FDE1000EF86E050EF76E000164
:1007840082EF02F0000E296E000E296ED4EF03F002
:1007940029502624D96E000E2720DA6EDF50F56E1C
:1007A4000D00292A2850295CD8A0DBEF03F0DDEFE7
:1007B40003F0CAEF03F01200000EF2BE010E266E23
:1007C400F29E7F8E550E816EAA0E816E808880B84F
:1007D400EEEF03F0F0EF03F0E9EF03F026B002D000
:1007E400F29E01D0F28E7F9E12003F0E3F6E000EED
:1007F400406E000E356E000E366E3DC037F03EC0C2
:1008040038F03F0E396E000E3A6E5BEC03F01200C6
:10081400000E0E01DC6F000EDD6F000EDE6F000EA9
:10082400DF6F000EE06F000EE16F1200600E0E012C
:10083400D36F000ED56F000ED76F060ED96F000E62
:10084400D86F120028C0F8FF27C0F7FF26C0F6FFB4
:1008540012000AEC04F082EC03F018EC04F012002D
:08086400466174696868120026
:020000040020DA
:10000000FFFFFFFFFFFFFFFFFFFFFFFFFFFFFFFF00
:10001000FFFFFFFFFFFFFFFFFFFFFFFFFFFFFFFFF0
:10002000FFFFFFFFFFFFFFFFFFFFFFFFFFFFFFFFE0
:10003000FFFFFFFFFFFFFFFFFFFFFFFFFFFFFFFFD0
:10004000FFFFFFFFFFFFFFFFFFFFFFFFFFFFFFFFC0
:10005000FFFFFFFFFFFFFFFFFFFFFFFFFFFFFFFFB0
:10006000FFFFFFFFFFFFFFFFFFFFFFFFFFFFFFFFA0
:10007000FFFFFFFFFFFFFFFFFFFFFFFFFFFFFFFF90
:10008000FFFFFFFFFFFFFFFFFFFFFFFFFFFFFFFF80
:10009000FFFFFFFFFFFFFFFFFFFFFFFFFFFFFFFF70
:1000A000FFFFFFFFFFFFFFFFFFFFFFFFFFFFFFFF60
:1000B000FFFFFFFFFFFFFFFFFFFFFFFFFFFFFFFF50
:1000C000FFFFFFFFFFFFFFFFFFFFFFFFFFFFFFFF40
:1000D000FFFFFFFFFFFFFFFFFFFFFFFFFFFFFFFF30
:1000E000FFFFFFFFFFFFFFFFFFFFFFFFFFFFFFFF20
:1000F000FFFFFFFFFFFFFFFFFFFFFFFFFFFFFFFF10
:020000040030CA
:0C000000ECFFFFFF9FFFFFFFFFFFFFFF73
:00000001FF
