:0F100000BCEF1EF00049276D20486572650000A7
:103C9400120046617469686868EC1EF0D9EC1EF085
:103CA4005CEC1EF0120028C0F8FF27C0F7FF26C006
:103CB400F6FF1200600E0E01D36F000ED56F000EDA
:103CC400D76F060ED96F000ED86F1200000E0E01CA
:103CD400DC6F000EDD6F000EDE6F000EDF6F000E76
:103CE400E06F000EE16F12003F0E3F6E000E406E5B
:103CF400000E356E000E366E3DC037F03EC038F013
:103D04003F0E396E000E3A6EFEEC1EF01200000EED
:103D1400F2BE010E266EF29E7F8E550E816EAA0EA5
:103D2400816E808880B899EF1EF09BEF1EF094EFAF
:103D34001EF026B002D0F29E01D0F28E7F9E1200B9
:103D4400000E296E000E296EB2EF1EF029502624B3
:103D5400D96E000E2720DA6EDF50F56E0D00292A89
:103D64002850295CD8A0B9EF1EF0BBEF1EF0A8EFD5
:103D74001EF01200960EF66E3C0EF76E000EF86EF4
:103D840000EE44F010EE06F00900F5CFEEFFE5502A
:103D9400E150FAE100EE01F0250EEE6AE806FDE1DD
:103DA400000EF86E100EF76E0001AFEF1FF0000E5C
:103DB400826E000E836E000E846E7F0E876E88689E
:103DC40089680F011C6914690C69000E286F000EC4
:103DD400136F000E0B6F000E1B6F000E0A6F000EA8
:103DE400126F000E1A6F096911691969086910695F
:103DF4001869080E256F120037C03BF038C03CF03C
:103E040012EF1FF035C02FF036C030F03B0E316E8C
:103E1400000E326E39C033F03AC034F025EC1FF096
:103E24003BC0F6FF3CC0F7FF0800F5500009D8A4DA
:103E34001EEF1FF020EF1FF004EF1FF0000E366E90
:103E4400000E356E120031C0D9FF32C0DAFFDECF6A
:103E5400F6FFDDCFF7FF0800F550250AD8A435EFAB
:103E64001FF037EF1FF04FEF1FF031C0D9FF32C002
:103E7400DAFFDE2A000EDD22000E226E000E216E15
:103E840021C025F02368246831C0D9FF32C0DAFF8D
:103E9400DE2A000EDD2263EF1FF031C0D9FF32C0ED
:103EA400DAFFDECFF6FFDDCFF7FF0800F550266E10
:103EB400276A2FC028F030C029F064EC1FF046EFC9
:103EC4001FF0120028502910D8B46BEF1FF06DEFCB
:103ED4001FF076EF1FF028502910D8A474EF1FF0BC
:103EE40076EF1FF07BEF1FF026504AEC1EF0AEEF8A
:103EF4001FF020EE09F02850D9262950DA22DE508E
:103F0400DE10D8B488EF1FF08AEF1FF0A5EF1FF082
:103F140020EE09F02850D9262950DA2210EE03F0B9
:103F24002850E1262950E222DE50E65CE650800A61
:103F34002E6EDE50800A2E58D8B0A3EF1FF0A5EFE6
:103F44001FF0AEEF1FF020EE03F02850D9262950C1
:103F5400DA22DE2A000EDD2212004EEC1EF0879ECD
:103F6400000E436E800E266E100E276E000E286E15
:103F7400000E296E55EC1EF000F000F0440E266E83
:103F8400000E276E060E286EA2EC1EF000F000F064
:103F940089EC1EF000F000F0828E290E426E960E1F
:103FA400416E7F0EE82EFED7412EFCD7422EFAD763
:103FB40000F0050E3D6E100E3E6E76EC1EF0829EF5
:103FC400050E426E0F0E416EF10EE82EFED7412E05
:103FD400FCD7422EFAD700F0432A030E4318D8A484
:103FE400F6EF1FF0F8EF1FF0CEEF1FF080EF02F0B6
:0C3FF400000E436ECEEF1FF000EF08F04F
:020000040020DA
:10000000FFFFFFFFFFFFFFFFFFFFFFFFFFFFFFFF00
:10001000FFFFFFFFFFFFFFFFFFFFFFFFFFFFFFFFF0
:10002000FFFFFFFFFFFFFFFFFFFFFFFFFFFFFFFFE0
:10003000FFFFFFFFFFFFFFFFFFFFFFFFFFFFFFFFD0
:10004000FFFFFFFFFFFFFFFFFFFFFFFFFFFFFFFFC0
:10005000FFFFFFFFFFFFFFFFFFFFFFFFFFFFFFFFB0
:10006000FFFFFFFFFFFFFFFFFFFFFFFFFFFFFFFFA0
:10007000FFFFFFFFFFFFFFFFFFFFFFFFFFFFFFFF90
:10008000FFFFFFFFFFFFFFFFFFFFFFFFFFFFFFFF80
:10009000FFFFFFFFFFFFFFFFFFFFFFFFFFFFFFFF70
:1000A000FFFFFFFFFFFFFFFFFFFFFFFFFFFFFFFF60
:1000B000FFFFFFFFFFFFFFFFFFFFFFFFFFFFFFFF50
:1000C000FFFFFFFFFFFFFFFFFFFFFFFFFFFFFFFF40
:1000D000FFFFFFFFFFFFFFFFFFFFFFFFFFFFFFFF30
:1000E000FFFFFFFFFFFFFFFFFFFFFFFFFFFFFFFF20
:1000F000FFFFFFFFFFFFFFFFFFFFFFFFFFFFFFFF10
:020000040030CA
:0C000000ECFFFFFF9FFFFFFFFFFFFFFF73
:00000001FF
